:100000000C94D9070C9420080C9420080C94322EE0
:100010000C9420080C9420080C9420080C942008C0
:100020000C9420080C9420080C94A6260C946226AC
:100030000C94012D0C9420080C9420080C9420089A
:100040000C9420080C9420080C9420080C94200890
:100050000C9420080C94DD2C0C9420080C9420089F
:100060000C9420080C9420080C9420080C94200870
:100070000C9420080C9420080C9420080C94200860
:100080000C9420080C9420080C9420080C94200850
:100090000C9420080C9420080C9420080C94200840
:1000A0000C9420080C9420080C9420080631FF09B9
:1000B00074A1010975150026FF00952075088102BD
:1000C0000976150026FF00952075089102C00501EC
:1000D0000902A10185020901A100050919012908E8
:1000E00015002501950875018102050109300931C6
:1000F0001581257F95027508810609381581257FB0
:10010000950175088106050C0A38021581257F9531
:100110000175088106C0C005010980A10185031988
:10012000012AB700150126B700950175108100C09E
:10013000050C0901A101850419012AA00215012657
:10014000A002950175108100C005010906A1018575
:1001500005050719E029E7150025019508750181B6
:10016000020507190029EF1500250195F075018199
:10017000020508190129059505750191029501757A
:10018000039101C00660FF0961A101096215002603
:10019000FF009520750881020963150026FF009570
:1001A0002075089102C005010906A101050719E0A3
:1001B00029E715002501950875018102950175084B
:1001C00081010507190029FF150026FF0095067516
:1001D0000881000508190129059505750191029509
:1001E0000175039101C00A002575002E6E6B726FB8
:1001F0003A20000A002575002E737761705F6261F6
:10020000636B736C6173685F6261636B737061636E
:10021000653A20000A002575002E737761705F67CC
:10022000726176655F6573633A20000A0025750088
:100230002E6E6F5F6775693A20000A002575002EE3
:10024000737761705F72616C745F726775693A2071
:10025000000A002575002E737761705F6C616C7405
:100260005F6C6775693A20000A002575002E737768
:1002700061705F7263746C5F726775693A20000A1F
:10028000002575002E737761705F6C63746C5F6C12
:100290006775693A20000A002575002E6361707346
:1002A0006C6F636B5F746F5F636F6E74726F6C3AC9
:1002B00020000A002575002E737761705F636F6EF2
:1002C00074726F6C5F636170736C6F636B3A200064
:1002D0000A0025303258006B65796D61705F636F7D
:1002E0006E6669672E7261773A20000A00257500F4
:1002F0002E6D6F7573653A20000A002575002E6B10
:100300006579626F6172643A20000A002575002EDB
:100310006D61747269783A20000A002575002E65B7
:100320006E61626C653A20000A0025303258006424
:10033000656275675F636F6E6669672E7261773A93
:1003400020000A0025750064656661756C745F6C39
:10035000617965723A20000A092D204D6167696351
:10036000202D0A443A094465627567204D65737310
:1003700061676520546F67676C650A583A094D617B
:1003800074726978204465627567204D6F646520DA
:10039000546F67676C65202D2053686F77206B65FD
:1003A000797072657373657320696E206D61747204
:1003B000697820677269640A4B3A094B6579626F04
:1003C00061726420446562756720546F67676C656D
:1003D000202D2053686F77206B6579707265737379
:1003E000207265706F72740A4D3A094465627567D0
:1003F000204D6F75736520546F67676C650A563AB8
:100400000956657273696F6E0A533A0953746174C1
:1004100075730A433A0941637469766174652043D0
:100420006F6E736F6C65204D6F64650A46312D46A3
:1004300031303A0953776974636820746F204C61D6
:1004400079657220302D392028463130203D204CEE
:1004500030290A302D393A0953776974636820745A
:100460006F204C6179657220302D390A4752415610
:10047000453A0953776974636820746F204C617939
:10048000657220302028616C7465726E6174652914
:100490000A423A094A756D7020746F20426F6F747A
:1004A0006C6F616465720A4553433A094A756D7011
:1004B00020746F20426F6F746C6F616465722028C6
:1004C000616C7465726E617465290A453A095072EF
:1004D000696E7420454550524F4D205365747469C0
:1004E0006E67730A4253504143453A09436C656154
:1004F0007220454550524F4D0A4E3A094E4B524FCD
:1005000020546F67676C650A004743433A20382ED2
:10051000342E30204156522D4C4942433A20322E3F
:10052000302E30204156525F415243483A20617686
:1005300072350A004F5054494F4E533A204C55469D
:1005400041204D4F5553454B455920455854524134
:100550004B455920434F4E534F4C4520434F4D4D33
:10056000414E44204E4B524F204C544F2034303992
:10057000360A004255494C443A2020284D617220E9
:1005800031342032303231290A005649443A203081
:1005900078363136432841667465726E6F6F6E4CE3
:1005A00061627329205049443A203078303030312C
:1005B00028427265657A6529205645523A2030787E
:1005C000303030310A000A092D2056657273696F88
:1005D0006E202D0A0074696D65725F726561643307
:1005E0003228293A202530346C580A006B65796D21
:1005F00061705F636F6E6669672E6E6B726F3A2013
:1006000025580A006B6579626F6172645F69646C7A
:10061000653A2025580A006B6579626F6172645FE4
:1006200070726F746F636F6C3A2025580A00686FA0
:1006300073745F6B6579626F6172645F6C6564731C
:1006400028293A2025580A000A092D20537461747C
:100650007573202D0A003F004E4B524F3A206F66B3
:10066000660A004E4B524F3A206F6E0A000A6D6FB9
:100670007573653A206F66660A000A6D6F7573655B
:100680003A206F6E0A000A6B6579626F6172643A94
:10069000206F66660A000A6B6579626F6172643A60
:1006A000206F6E0A000A6D61747269783A206F6675
:1006B000660A000A6D61747269783A206F6E0A00EA
:1006C0000A64656275673A206F66660A000A6465A7
:1006D0006275673A206F6E0A000A0A4A756D706982
:1006E0006E6720746F20626F6F746C6F61646572E7
:1006F0002E2E2E2000433E2000436C656172696EF1
:100700006720454550524F4D0A006565636F6E6620
:1007100069673A0A006D6B5F776865656C5F74693D
:100720006D655F746F5F6D6178203D2025640A0000
:100730006D6B5F776865656C5F6D61785F73706521
:100740006564203D2025640A006D6B5F74696D65EA
:100750005F746F5F6D6178203D2025640A006D6BCA
:100760005F6D61785F7370656564203D2025640A64
:10077000006D6B5F696E74657276616C203D20253B
:10078000640A006D6B5F64656C6179203D202564AF
:100790000A006D6B5F776865656C5F74696D655F96
:1007A000746F5F6D6178203D2025640A006D6B5F7A
:1007B000776865656C5F6D61785F737065656420EF
:1007C0003D2025640A006D6B5F74696D655F746F11
:1007D0005F6D6178203D2025640A006D6B5F6D615F
:1007E000785F7370656564203D2025640A006D6B39
:1007F0005F696E74657276616C203D2025640A0025
:100800006D6B5F64656C6179203D2025640A00771B
:10081000686572652064656C74613A2063757273F3
:100820006F723D25642C20776865656C3D25640AF0
:1008300053656520687474703A2F2F656E2E776942
:100840006B6970656469612E6F72672F77696B6978
:100850002F4D6F7573655F6B6579730A000A092DFB
:10086000204D6F7573656B6579202D0A4553432FB5
:10087000713A09717569740A313A0964656C617974
:10088000282A31306D73290A323A09696E7465720B
:1008900076616C286D73290A333A096D61785F734C
:1008A000706565640A343A0974696D655F746F5FD9
:1008B0006D61780A353A09776865656C5F6D6178B6
:1008C0005F73706565640A363A09776865656C5FC1
:1008D00074696D655F746F5F6D61780A0A703A09BB
:1008E0007072696E742076616C7565730A643A097A
:1008F0007365742064656661756C74730A75703A0B
:10090000092B310A646F776E3A092D310A706775C9
:10091000703A092B31300A7067646F776E3A092D8F
:1009200031300A0A7370656564203D2064656C741B
:1009300061202A206D61785F7370656564202A20CC
:1009400028726570656174202F2074696D655F740D
:100950006F5F6D6178290A004C25640A00290A003E
:100960002575002F002575005D28002564002000F6
:10097000256400200025640020002564007C0025FB
:10098000303258006D6F7573656B6579205B6274EA
:100990006E7C782079207620685D287265702F61E2
:1009A000636C293A205B002200210020001F001EFA
:1009B0000029000000000000001700150008001AC0
:1009C0000014002B000000000000000A00090007CE
:1009D0000016000400E000000000000000050019FF
:1009E0000006001B001D00E1000000000000002CBC
:1009F00000E300E200E00000000000000000000052
:100A000000230024002500260027002A002D002EA8
:100A10000035001C0018000C00120013004C002FC1
:100A200000300031000B000D000E000F00330034C9
:100A3000000000520000001100100036003700389E
:100A400000E500500051004F002800025101510004
:100A50000000000000000000000000010001000193
:100A60000001000100005C00000000000001000126
:100A70000001000100010001000000000000000171
:100A80000001000100010001000100000000000061
:100A90000001000100010001000100010000000050
:100AA0000000000100010001000100000000000042
:100AB0000000000000010001000100010001000130
:100AC00000A800AA00A90001000100010001000126
:100AD000000100010001000100010001000100010E
:100AE0000001000100000001000000010001000100
:100AF00000010001000100010001000100010001EE
:100B000000010001000000000000000000000001E2
:100B100000010001000100010001000000000000D0
:100B200000010001000100010001000100000000BF
:100B300000000001000100010001000100010000AF
:100B4000000000000001000100010001000100019F
:100B50000000000000000001000100010001000091
:100B60000000000000000000000100670054005574
:100B7000005600010001000100010001005F00605B
:100B80000061005700010001000100010001005C4C
:100B9000005D005E00010001000000010000000196
:100BA0000059005A005B0001000100010001000132
:100BB000000100010062006300000000000000006E
:100BC000000000010001000100010001000100001F
:100BD000000000000001000100010001000100010F
:100BE0000000000000000001000100010001000100
:100BF00000010000000000000001000100010001F0
:100C000000010001000000000000000100010001DF
:100C100000010000000000000000000000010001D1
:100C200000010001000100010001000100010001BC
:100C300000010001000100010001000100010001AC
:100C4000000100010001000100010001000000019D
:100C5000000000010001000100010001000100018D
:100C6000000100010001000100010001000000007E
:100C70000000000000000000000000000000000074
:100C80000000000000000000000000000000000064
:100C900000000000000000000000007E0F00D4FFF4
:100CA000FFFFC70000007800000000000000002ADD
:100CB0002B280000000000000000000000000000E1
:100CC000000029000000002C1E342021222434269C
:100CD00027252E362D3738271E1F20212223242595
:100CE000263333362E37381F0405060708090A0B4A
:100CF0000C0D0E0F101112131415161718191A1BBC
:100D00001C1D2F3130232D350405060708090A0B59
:100D10000C0D0E0F101112131415161718191A1B9B
:100D20001C1D2F3130354C44454255473A206469EB
:100D30007361626C65642E0A0044454255473A204F
:100D4000656E61626C65642E0A000A092D20436F8E
:100D50006E736F6C65202D0A4553432F713A0971EC
:100D60007569740A6D3A096D6F7573656B65790AFB
:100D7000003F004D3E2000433E20000A0025750044
:100D8000363A20776865656C5F74696D655F746F6E
:100D90005F6D61783A20000A00257500353A2077AA
:100DA0006865656C5F6D61785F73706565643A2036
:100DB000000A00257500343A2074696D655F746F10
:100DC0005F6D61783A20000A00257500333A206D86
:100DD00061785F73706565643A20000A00257500CC
:100DE000323A20696E74657276616C286D73293AA7
:100DF00020000A00257500313A2064656C6179286D
:100E00002A31306D73293A20000A092D2056616C71
:100E1000756573202D0A004D3E004D25643E20006F
:100E20003F007365742064656661756C740A0043E5
:100E30003E20000A002530325820006B6579626F31
:100E40006172645F7265706F72743A2000616464ED
:100E50005F6B65795F6269743A2063616E27742005
:100E60006164643A20253032580A0064656C5F6B17
:100E700065795F6269743A2063616E2774206465E6
:100E80006C3A20253032580A000A0025303136628B
:100E9000003A200025303258000A722F632030318A
:100EA00032333435363738394142434445460A00F7
:100EB0000A0025303258006B6579626F6172645F99
:100EC0007365745F6C65643A20005B735D004B650D
:100ED00079626F6172642073746172742E0A005BB0
:100EE000435D005B445D005B535D005B575D005BF1
:100EF000525D0009027B00040100A0FA0904000011
:100F00000103010100092111010001224000070530
:100F1000810308000A0904010002030000000921FE
:100F200011010001222200070582032000010705AC
:100F3000030320000109040200010300000009214D
:100F40001101000122B6000705840320000A0904EC
:100F50000300020300000009211101000122220008
:100F60000705850320000107050503200001120184
:100F70001001000000086C61010001000102000185
:100F80000E0342007200650065007A0065000000F3
:100F90001C03410066007400650072006E006F0063
:100FA0006F006E004C0061006200730000000403DB
:100FB000090411241FBECFEFDAE0DEBFCDBF04B6B7
:100FC00003FE27C08091CB029091CC02A091CD026C
:100FD000B091CE028730904BA740B04BD1F4109225
:100FE000CB021092CC021092CD021092CE0214BE0F
:100FF00084B7877F84BF0FB6F894A895809160006E
:10100000886180936000109260000FBEE0E0F8E31A
:10101000099511E0A0E0B1E0E8E9FFE502C0059024
:101020000D92AC37B107D9F722E0ACE7B1E001C0CF
:101030001D92AB3CB207E1F70E94D3270C94542FCA
:101040000C940000FF93EF93E0917C01F0917D01FF
:10105000309709F00995EF91FF910895FC01859172
:10106000803011F0EFDFFBCF0895FF27E0E230E2A0
:1010700047FF0CC0419597FF09C0EDE26095709560
:1010800080959095611D711D811D911D27FF02C0E6
:10109000219530E350E2AA27660F771F881F991F1A
:1010A000AA1FA41710F0A41B63955A95A9F7AA309C
:1010B00008F0A95FA05DAF93F395611571058105F7
:1010C000910541F7ED3211F4EF93F395F21718F40F
:1010D0003F93F395FBCF8F91B5DFFA95E1F7089534
:1010E000E991F9918591803021F0853219F0AADFDC
:1010F000F9CF089520E0E89455915532C1F350336B
:1011000011F4689455915A3348F4505390F3220FD8
:10111000022E220F220F200D250FF4CF0EF4219561
:1011200089919991533619F3533729F1533559F170
:10113000BC0188279927E8945C3621F4899199911C
:1011400068945591543639F446EF7EF077FF0DC020
:101150008FEF9FEF0AC055374AE039F0583540E12C
:1011600021F0523642E009F00895FF93EF937DDFBE
:10117000EF91FF91B7CFFF93EF93FC018191803006
:10118000B9F360DFFBCFFF93EF9368DFF1CFDF931D
:10119000CF93CDB7DEB72596A3DFCF91DF9108952A
:1011A000E8EDF0E080818E7F80831092E200109263
:1011B000DA001092E100A0EEB0E08C9181608C9397
:1011C00080818F77808319BCA7EDB0E08C918E7FF2
:1011D0008C9380818F7E8083109284020895209169
:1011E000E4003091E50095E6A9012091EC00822F02
:1011F000817020FF06C08091E80080FF06C080E07B
:1012000008952091E80022FD1AC08091A902882348
:1012100089F0853089F08091EB0085FD0FC0209129
:10122000E4003091E50042175307F9F29150E1F6DE
:1012300084E0089582E0089583E0089581E00895B0
:10124000EF92FF920F931F93CF937C018B010E942B
:10125000EF08C82F811117C08091E80085FD0BC0F1
:101260008091E8008E778093E8000E94EF08882341
:1012700099F3C82F08C0F70181917F018093F10095
:101280000150110949F78C2FCF911F910F91FF90B9
:10129000EF9008958091AB0287FF13C08091E80022
:1012A00082FF06C08091E8008B778093E80004C03D
:1012B0008091A9028111F2CF08958091A90288231B
:1012C000D9F38091E80080FFF8CF8091E8008E7715
:1012D000ECCF982F9093E900242F762F50E08917B8
:1012E00031F07091EC002091ED005091F00021FD63
:1012F00007C09F5F973071F78093E90081E0089500
:101300003091EB003E7F3093EB003091ED003D7F5C
:101310003093ED003091EB0031603093EB0070932F
:10132000EC002093ED005093F0002091EE0027FD9B
:10133000E0CF80E00895CF92DF92EF92FF920F937B
:101340001F93CF93DF93C8EDD0E088818F7E888391
:10135000E7EDF0E080818160808384E082BF81E0FE
:101360008093840288818E7F888302EE10E0F801EA
:1013700010821092DA0081EEC82ED12CF601108274
:1013800088818F77888388818068888388818F7D32
:10139000888319BC1092A9021092AA021092A80286
:1013A0001092A70290EEE92EF12CF70180818B7F3D
:1013B000808388818160888342E060E080E00E94D1
:1013C0006909F60180818E7F8083F80180818160C8
:1013D0008083808188608083F70180818E7F808315
:1013E000888180618883DF91CF911F910F91FF9059
:1013F000EF90DF90CF900895FC018091B102909121
:10140000B20286179707A0F06115710529F4909133
:10141000E8009E779093E80090E06115710551F423
:10142000911108C08091E80082FF34C080E00895E7
:10143000BC01F2CF8091A9028823C1F18530C1F1AE
:101440008091E80083FD30C08091E80082FDEACF02
:101450008091E80080FFE1CF8091F3002091F200BD
:10146000382F6115710519F02830310558F091E0D9
:101470002830310509F090E02091E8002E77209384
:10148000E800CBCF81918093F100615071092F5F0B
:101490003F4FE7CF8091A902882341F0853041F08A
:1014A0008091E80083FFBECF81E0089582E0089537
:1014B00083E0089580918602089587E797E79093E7
:1014C00001088093000888E19AE00FB6F894A89587
:1014D000809360000FBE90936000FFCF9C014FB7D8
:1014E000F8948091280290912902A0912A02B0914B
:1014F0002B024FBF821B930B08952FB7F894609176
:1015000028027091290280912A0290912B022FBF0C
:1015100008952FB7F8948091280290912902A09104
:101520002A02B0912B022FBF0895809123028111CE
:1015300010922302089529E0929F800D1124982F84
:10154000977086958695869525E0829FF0011124F7
:10155000ED51FE4F50E040E080E0219130E0092E57
:1015600002C0369527950A94E2F721703327042E9E
:1015700001C0220F0A94EAF7822B4F5F5F4F45307C
:10158000510559F7089529E0929F800D1124982F55
:10159000977041E001C0440F9A95EAF786958695C9
:1015A000869595E0899FF0011124ED51FE4F90E062
:1015B00080E070E05191DF0111979B01082E02C07D
:1015C000369527950A94E2F7217021952527242343
:1015D00025272C9301968530910561F70895809118
:1015E000E2019091B101981301C008958F5F877057
:1015F000FACF2091A5013091A6012817390771F083
:101600009093A6018093A501E0914902F0914A02CE
:10161000309721F00084F185E02D09940895209100
:10162000A3013091A4012817390771F09093A40108
:101630008093A301E0914902F0914A02309721F092
:101640000680F781E02D09940895E0914902F09118
:101650004A02309721F00190F081E02D099480E05A
:101660000895409154028D3E59F48091550287FFB0
:101670000DC01092550241110BC010924F0208C0CC
:101680008E3E81F48091550218169CF3442381F01C
:101690008091560290915702892B09F05AC01092FE
:1016A0004C0208958F3E49F447FFF0CF1092540248
:1016B000809155028111ECCFE0CF803F19F41416D0
:1016C000ACF3E4CF90915602893F29F41916F4F651
:1016D00010925602DBCF8A3F19F497FFD7CFF8CF8D
:1016E000909157028B3F29F497FFD0CF1092570269
:1016F000CDCF8C3F19F41916CCF3C8CF9FE0980FCB
:10170000983090F4815F990B21E030E0B90102C07C
:10171000660F771F8A95E2F7CB018095909153026F
:10172000892380935302B2CF8D3F31F48091AA0177
:101730008E7F8093AA01AACF8E3F21F48091AA01C7
:101740008D7FF7CF8F3F09F0A1CF8091AA018B7FCA
:10175000F0CF08958091AA0180FF0CC06091010133
:1017600070E075956795759567956115710549F1F7
:10177000862F089581FF06C06091010170E0759584
:101780006795F3CF6091010182FD0BC090914C02EF
:101790009923A1F06091000180910101961738F022
:1017A000682F70E06038710500F38FE70895899F16
:1017B000C001112470E00E94DD2EF4CF61E070E0E2
:1017C000D7CF81E008958091AA0180FF12C0609177
:1017D000030185E0689FB0011124759567957595A3
:1017E000679560387105A8F561157105A1F1862F1F
:1017F000089581FF09C06091030185E0689FB001F1
:10180000112475956795EDCF6091030182FD0AC0A3
:1018100080914F028823D1F09091020160910301E1
:10182000891728F085E0689FB0011124DACF869FE0
:10183000B001112485E0869F9001879F300D11240F
:10184000692F70E0C9010E94DD2ECBCF65E070E00A
:10185000CECF8FE7089581E008958D3E31F40E9448
:10186000E30B81958093550208958E3E19F40E94F2
:10187000E30BF8CF8F3E31F40E94E30B8195809308
:1018800054020895803F19F40E94E30BF8CF893F7A
:1018900029F40E94AA0B8093560208958A3F21F4EE
:1018A0000E94AA0B8195F7CF8B3F31F40E94AA0BBF
:1018B00081958093570208958C3F19F40E94AA0BDA
:1018C000F8CF9FE0980F983070F4815F990B21E07A
:1018D00030E001C0220F8A95EAF780915302822BF3
:1018E0008093530208958D3F31F48091AA01816065
:1018F0008093AA0108958E3F21F48091AA0182600D
:10190000F7CF8F3FB9F78091AA018460F1CF239878
:101910002B9883B183FB882780F90895F894E82FEA
:10192000E295EF70F0E031A1282F2F7081E090E078
:1019300001C0880F2A95EAF7982F9095932391A3D9
:1019400092A1892B82A3789408959091470292FFE7
:1019500006C0282F28712830F9F4877F846093FF10
:1019600006C0282F28712831F1F4877E84612091E8
:10197000480220FF06C0382F38713830D9F4877FED
:10198000816021FF06C0282F28712831D1F4877E7D
:10199000816194FD877E0895282F24712430F9F603
:1019A0008B7F8860DCCF282F2471243101F78B7E58
:1019B0008861DDCF382F3171313019F78E7F886023
:1019C000E0CF282F2171213121F78E7E8861E1CF70
:1019D000829590E09C01220F331F220F331F2C7C35
:1019E00095958795959587958373282B30E0C90148
:1019F000880F991F8A7A359527952575822B08952A
:101A0000CF9384E090E00E94122FC82F81E290E0F3
:101A10000E94122F982F8C2FCF9108950F931F9310
:101A2000CF93DF93C42FD0E0CC0FDD1F22E1629F64
:101A3000C00DD11D112434EB839FC00DD11D112485
:101A4000CE0186960E94122F082F10E0102F00273B
:101A5000CE0187960E94122F9801282BC901DF9191
:101A6000CF911F910F910895462F843038F47A302A
:101A700028F4693018F4672F0C940E0D90E080E084
:101A80000895CF93DF930E94340DEC0182389105C5
:101A9000A9F1D8F58133910509F496C048F589324A
:101AA000910509F48AC08A9709F495C0C11521E50A
:101AB000D20708F0BCC0C11530E5D30708F014C147
:101AC000C83ED10508F09CC0C03ED10560F5C83ABB
:101AD000D10508F087C0C53AD10508F0FDC0C13076
:101AE000D10509F12097F9F0C430D105E0F440C0E8
:101AF0008533910509F45AC0C997C1F68091470210
:101B0000837089F0C0EED0E00EC0833E910599F15C
:101B100070F4803E910501F1823E910539F6809185
:101B2000470282FD21C0CE01DF91CF910895863E0C
:101B3000910561F1873E910571F1843E910509F0AF
:101B4000B5CF8091480281FFEECF80914702C7EE6A
:101B5000D0E084FD0DC0E7CF8091470280FD12C127
:101B60009091480290FFDFCFC3EED0E084FFDBCF3F
:101B7000D0E0C0E0D8CF8091470282FD06C19091AD
:101B8000480290FDBFCF84FFCECFF2CF80914702B5
:101B900083FDDDCFC8CF8091470283FDF9C09091CE
:101BA000480291FFF0CFC4EED0E0BDCF8091470254
:101BB00085FFB9CFC9E2D0E0B6CF8091470285FF5B
:101BC000B2CFC5E3D0E0AFCF8091470286FFABCF65
:101BD000CAE2D0E0A8CF8091470286FFA4CFC1E33C
:101BE000D0E0A1CFCF3BD10518F6C85AD0E0CC0F3A
:101BF000DD1FC95DDE4F0990D881C02DD46493CF1D
:101C0000C11540E2D40758F4C11581E0D80708F0A7
:101C10008ACFCD3ED10508F4ABCFD06584CFC115B6
:101C200090E4D90708F4A4CFDF70D06A7CCFC11547
:101C300025E5D20700F5C11534E5D30708F08AC0C1
:101C4000C11543E5D40708F071C0C11582E5D80776
:101C500008F467C0CE018370992721E030E002C00C
:101C6000220F331F8A95E2F7C695C69580E2C89F7A
:101C7000E001112452C0C11599E5D907A8F4C11596
:101C800028E5D20708F06BC0C11536E5D30708F088
:101C90006FCF8C2F0E94A50CC82FD0E0DC2FCC2753
:101CA000CC27DF71D0623FCFC1154AE5D40708F4D5
:101CB0005BC0CE0190568115904208F059CF8D2F10
:101CC0008F710E94A50C90E0982F882788279F711C
:101CD0009C012C2BE901E6CFC55AD0E0CC5DDE4F4C
:101CE000C881D0E0D0641FCFCE01E4E096958795FF
:101CF000EA95E1F783702C2F26952695237040E214
:101D0000249F90011124382B8C2F8370C1E0D0E0E8
:101D100002C0CC0FDD1F8A95E2F7C22BD32BDC6803
:101D200002CFDC2FCC27C16FD06AFDCECE018370ED
:101D3000992721E030E002C0220F331F8A95E2F795
:101D4000C695C69590E2C99FE0011124C22BD32B02
:101D5000DA68E9CEDC2FCC27C46FD06AE4CEDC2F62
:101D6000CC27C06FD06ADFCE8C2F8F700E94A50C5D
:101D700034E0D695C7953A95E1F7CF709C2FEC01EA
:101D8000D069D1CEC9E3D0E0CECEC2EED0E0CBCE8A
:101D9000C6EED0E0C8CEBF92CF92DF92EF92FF9214
:101DA0000F931F93CF93DF938C01C090B602D09016
:101DB000B702E090B802F090B902809124029091AD
:101DC0002502A0912602B0912702C82AD92AEA2A20
:101DD000FB2ACFE1D0E0BC2ED701C6010C2E04C0F7
:101DE000B695A795979587950A94D2F780FD0EC072
:101DF000219788F7B12C8B2DDF91CF911F910F91F7
:101E0000FF90EF90DF90CF90BF900895B8018C2F96
:101E10000E94410D019761F3EECFCF93DF93EC0168
:101E20000E94CB0EBE01DF91CF910C94410D0E9418
:101E30000D0F292F2F7092959F7092509E3078F43D
:101E4000E92FF0E0EA5AF04D0C94F12E803F19F0A2
:101E500020F4883E20F481E00895843FE1F380E09F
:101E60000895883EC0F3813FD1F7F5CF822F869544
:101E70008695869508956F927F928F929F92AF92EA
:101E8000BF92CF92DF92EF92FF920F931F93CF9367
:101E9000DF9387EAC82E89E0D82E9CEEE92EF12C3C
:101EA000E701C45BD10936011BC0F5018590949010
:101EB000692DC8010E94202F682DC80101960E943B
:101EC000202F82E0A80EB11C0E5F1F4FC017D10754
:101ED00061F782E1680E711C6296CE15DF0529F06C
:101EE0008E01025111095301E0CF7E0184EBE80E0F
:101EF000F11C84EBC80ED11C8CEBE81683E0F806CD
:101F000079F6DF91CF911F910F91FF90EF90DF90C5
:101F1000CF90BF90AF909F908F907F906F900895DB
:101F2000CF93DF93C6EFD2E060E0CE010E94202F76
:101F30002196C11584E0D807B9F7DF91CF910895B4
:101F400020911101222351F12091470227FF26C041
:101F5000E62FE695E695E695EE3178F4E80FF92F51
:101F6000F11D677021E030E001C0220F6A95EAF7A9
:101F7000209582812823228308958091590280FF31
:101F800019C01F926F938BE69EE09F938F930E94E0
:101F9000C7080F900F900F900F900895FC01329694
:101FA00008962191621303C0DF0111971C92E81774
:101FB000F907B9F7089520911101222349F12091E1
:101FC000470227FF25C0E62FE695E695E695EE3118
:101FD00070F4E80FF92FF11D677021E030E001C0C7
:101FE000220F6A95EAF78281822B8283089580917D
:101FF000590280FF1EC01F926F938DE49EE09F9355
:102000008F930E94C7080F900F900F900F90089524
:10201000FC0132962FEF30E04191641751F02F3FD1
:1020200019F4411101C0232F3F5F3630A9F72F3F2C
:1020300009F40895820F911D27FD9A95FC01628392
:102040000895EF92FF920F931F93CF93DF938091A8
:10205000220290912102892B90912002892B80935A
:102060007E01909123029923B1F0892B80937E0108
:1020700080911101882309F45DC08091470287FF98
:1020800059C08EE1E0E8F1E090E0815008F054C0E2
:1020900091110E94950AE0914902F0914A0230970D
:1020A00009F450C080911101882359F080914702B2
:1020B00087FF07C080917E0180937F0185E0809338
:1020C0007E010280F381E02D8EE791E009958091F9
:1020D000590282FF37C080FF04C08BE39EE00E945C
:1020E0002E08CEE7D1E086E8E82E81E0F82E05E361
:1020F0001EE08091590280FF0BC088811F928F9350
:102100001F930F930E94C7080F900F900F900F908E
:102110002196EC16FD0669F78091590280FF12C0E6
:1021200083E39EE0DF91CF911F910F91FF90EF909D
:102130000C942E0886E0A6CF2191222309F4A5CF86
:102140009F5FA3CFDF91CF911F910F91FF90EF90F1
:102150000895882341F080959091220289238093ED
:1021600022020C9421100895882339F090912202C4
:10217000982B909322020C9421100895809159027B
:1021800083FF7EC084E899E00E942E08809153026C
:102190001F928F938FE799E09F938F930E94C708B8
:1021A0008DE799E00E942E0880915402282F082E76
:1021B000000C330B3F938F938AE799E09F938F93A3
:1021C0000E94C70888E799E00E942E088091550276
:1021D000282F082E000C330B3F938F9385E799E04F
:1021E0009F938F930E94C70883E799E00E942E086F
:1021F00080915602282F082E000C330B3F938F93AB
:1022000080E799E09F938F930E94C7088EE699E03C
:102210000E942E0880915702282F082E000C330BA5
:102220003F938F938BE699E09F938F930E94C7080B
:1022300088E699E00E942E0880914F021F928F93AA
:1022400085E699E09F938F930E94C70883E699E003
:102250000E942E088091AA011F928F9380E699E038
:102260009F938F930E94C7088DE599E00E942E08E6
:102270008DB79EB74C960FB6F8949EBF0FBE8DBF1C
:102280000E94890A9C019091540280915502982BDA
:1022900021F0309351022093500290915602809188
:1022A0005702982B21F030934E0220934D02E0917B
:1022B0004902F0914A02309749F082E0809352023D
:1022C0000480F581E02D82E592E00994089590E084
:1022D00080E00E940F0B90E080E00E94F90A1092CB
:1022E0002102109220020E94211086E0E2E5F2E035
:1022F000DF011D928A95E9F710924F0210924C026D
:102300001092AA010C94BE106093B6027093B702AB
:102310008093B8029093B9020C9467110F931F93A6
:102320006091B6027091B7028091B8029091B902A3
:102330008B019C01067011272227332706301105D7
:102340002105310529F468601F910F910C948411C7
:10235000677FFACF0F931F9341E050E060E070E099
:1023600004C0440F551F661F771F8A95D2F7CB0113
:10237000BA0160957095809590950091B602109184
:10238000B7022091B8023091B902602371238223F1
:1023900093231F910F910C94841190911F028095AB
:1023A000892380931F02282F277071F4282F082E6D
:1023B000000C330B9217130639F08595859585959A
:1023C0000E94AA1110921F0208950F931F9341E0DB
:1023D00050E060E070E004C0440F551F661F771F97
:1023E0008A95D2F78091B6029091B702A091B80277
:1023F000B091B9028A019B01082B192B2A2B3B2B88
:10240000C901B8011F910F910C94841160932402AB
:102410007093250280932602909327020C946711F3
:102420008823B1F19CEF980F913A38F4682F8EE72A
:1024300091E00E94A00F0C94211090E2980F983028
:1024400088F4877021E030E0A90102C0440F551FD5
:102450008A95E2F7CA0180959091220289238093A0
:102460002202E9CF9BE5980F933020F490E080E0C2
:102470000C940F0B98E5980F973120F490E080E0D2
:102480000C94F90A8D3E20F00E94310B0C94BE1082
:1024900008958DE598E00E942E081F9281E08F93A9
:1024A0001F9285E08F938FE098E09F938F930E9417
:1024B000C7080F900F900F900F900F900F900895F6
:1024C0008330C9F128F4813061F0823019F1089528
:1024D000853009F452C008F43FC0863009F45EC06C
:1024E000089580910501681790F4861B809305017B
:1024F000809105011F928F9380E098E09F938F93C6
:102500000E94C7080F900F900F900F90089510929F
:102510000501EECF80910601681750F4861B809369
:102520000601809106011F928F938EEE97E0E6CF11
:1025300010920601F6CF80910301681750F4861BB4
:1025400080930301809103011F928F938BED97E09D
:10255000D5CF10920301F6CF80910201681750F495
:10256000861B80930201809102011F928F9386EC5B
:1025700097E0C4CF10920201F6CF80910101681755
:1025800050F4861B80930101809101011F928F936B
:102590008DEA97E0B3CF10920101F6CF8091000150
:1025A000681750F4861B80930001809100011F92F0
:1025B0008F9382E997E0A2CF10920001F6CF83308B
:1025C00009F445C028F4813061F0823049F1089562
:1025D000853009F46AC008F451C0863009F47CC023
:1025E000089580910501482F460F5527551F4F3FED
:1025F000510594F4680F60930501809105011F92C5
:102600008F9383E897E09F938F930E94C7080F9062
:102610000F900F900F9008958FEF80930501EDCFED
:1026200080910601482F460F5527551F4F3F5105F2
:1026300054F4680F60930601809106011F928F93F6
:1026400081E797E0E0CF8FEF80930601F5CF80918F
:102650000301482F460F5527551F4F3F510554F48E
:10266000680F60930301809103011F928F938EE5A1
:1026700097E0C9CF8FEF80930301F5CF80910201DE
:10268000482F460F5527551F4F3F510554F4680FEB
:1026900060930201809102011F928F9389E497E079
:1026A000B2CF8FEF80930201F5CF80910101482FC7
:1026B000460F5527551F4F3F510554F4680F60933F
:1026C0000101809101011F928F9380E397E09BCFDE
:1026D0008FEF80930101F5CF80910001482F460FC5
:1026E0005527551F4F3F510554F4680F6093000163
:1026F000809100011F928F9385E197E084CF8FEF47
:1027000080930001F5CF9FB7F894109282029FBF8B
:102710009091A902943009F048C02091E9002F70EF
:102720003091EC00932F917030FD90E8922B25E0D2
:102730002093E9002091EB0020FF34C02091EE00AF
:1027400027FF30C020912C02222321F02091E800A5
:1027500025FF28C010922C0226E03091E80035FFBA
:1027600014C08093F1008091E80085FD27C080911E
:10277000E80080FFFCCF8091E8008E778093E8002E
:102780009F709093E90080E008953091A902343061
:1027900049F43091EB0035FD05C0215041F481E052
:1027A00080932C029F709093E9008FEF0895EFE9DA
:1027B000FFE03197F1F700C00000CFCF8FB7F8945A
:1027C00021E0209382028FBFDBCFCF93DF9300D035
:1027D0000F92CDB7DEB79091A902943011F589839D
:1027E0007B836A839093E9008FEF9091E80081509A
:1027F00095FD06C095ED9A95F1F700008111F5CF92
:102800008091E80085FF0DC050E040E063E070E09B
:10281000CE0101960E9420098091E8008E77809376
:10282000E8000F900F900F90DF91CF910895BC01B9
:1028300084E00C94E513BC0183E00C94E5139C0147
:1028400084E08093E9009FEF8091E800915085FD3E
:1028500006C085ED8A95F1F700009111F5CF8091C2
:10286000E80085FF0CC050E040E066E070E0C90180
:102870000E9420098091E8008E778093E8000895F7
:10288000CF93DF93EC01809111018823B1F1809106
:10289000470287FF32C060E284E08093E9008FEF57
:1028A0009091E800815095FD06C095ED9A95F1F75D
:1028B00000008111F5CF8091E80085FF1BC0809159
:1028C000110170E050E040E0811104C050E040E0B0
:1028D00068E070E0CE010E9420098091E8008E77C8
:1028E0008093E80080E2FE01A7E8B2E001900D923B
:1028F0008A95E1F7DF91CF91089568E081E0CDCF2F
:102900008091A201811111C08091D80080618093D3
:10291000D8008AE18A95F1F700C09091D900892FFB
:10292000817090FF82E08093A20181E09091A201EA
:10293000913009F080E008956BEE7EEF90E080E04A
:102940000E943E2F60E082E090E00E94202F60E035
:1029500083E090E00E94202F109224021092250222
:10296000109226021092270260E084E090E00E941C
:10297000202F60E081E290E00E94202F60E085E05F
:1029800090E00E94202F60E086E090E00E94202FDF
:102990006FEF87E090E00E94202F40E050E0BA0106
:1029A00088E090E00E94322F60E08DE090E00E948D
:1029B000202F40E050E0BA0188E190E00E94322FE1
:1029C00060E087E190E00E94202F40E050E0BA01F3
:1029D0008CE190E00E94322F60E080E290E00E9463
:1029E000202F40E050E0BA0188E190E00E94322FB1
:1029F00040E050E0BA018FE090E00E94322F40E0CA
:102A000050E0BA0183E190E00C94322F1092220240
:102A100080911101E0E8F1E0882359F080914702AC
:102A200087FF07C08EE1DF011D928A95E9F70C94BC
:102A3000671186E0F8CF1F93CF93DF93CDB7DEB752
:102A4000AA970FB6F894DEBF0FBECDBF8BEA92E017
:102A50002091F100DC012D93CD01B2E0833B9B0777
:102A6000B9F78091AC02833009F471C0B8F48130B9
:102A700009F448C0823009F4B2C08091E80083FFB5
:102A80003AC18091AB029091AC029A3008F033C108
:102A9000E92FF0E0EC59F04D0C94F12E8A3009F456
:102AA0008DC08B3009F470C0893039F78091AB024A
:102AB000813219F78091AF029091B002009711F026
:102AC0000297D9F68091E800877F8093E800809193
:102AD000E80082FF37C09091F3008091F2000297E6
:102AE00029F48091F1008B7F813021F48091F100F5
:102AF000809386028091E8008B778093E8000E94A3
:102B00004A09BBCF8091AB02813A09F0B6CF8091E0
:102B1000E800877F8093E8008091AF029091B00237
:102B2000892B61F460E287E892E070E00E94FC0982
:102B30008091E8008B778093E8009FCF60E090E081
:102B400080E0F3CF8091A9028111C1CF96CF80910F
:102B5000AB02813A09F091CF8091AF029091B0021F
:102B6000892B09F08ACF8091E800877F8093E80065
:102B70008091E80080FFFCCF809111018093F100EB
:102B80008091E8008E77B9CF8091AB02813209F055
:102B900074CF8091AF029091B002892B09F06DCF74
:102BA0008091E800877F8093E8000E944A09809125
:102BB000AD02809311010E9406155FCF8091AB0298
:102BC000813209F05ACF8091E800877F8093E80036
:102BD0000E944A098091AE02809385024ECF809177
:102BE000AB02813A09F049CF8091E800877F80935A
:102BF000E8008091E80080FFFCCF80918502BECF85
:102C0000803899F0823809F076C08091AF028F70D9
:102C1000873008F070C08093E9008091EB0085FB5D
:102C2000882780F91092E90006C08091A702909150
:102C3000A802911182609091E800977F9093E8003C
:102C40008093F1001092F1008091E8008E77BAC174
:102C5000882309F4A7C1823009F04DC08091AD02EC
:102C60008111ABC18091AF028F702FEF280F2630FA
:102C700008F041C08093E9002091EB0020FF9DC146
:102C8000933031F48091EB0080628093EB0095C12A
:102C90009091EB0090619093EB0021E030E001C057
:102CA000220F8A95EAF72093EA001092EA008091B9
:102CB000EB008860EACF81111EC01091AD021F7732
:102CC0008091E3008078812B8093E3008091E8007D
:102CD000877F8093E8000E944A098091E80080FF86
:102CE000FCCF8091E30080688093E30082E01111C3
:102CF00083E08093A9028091E80083FF0AC080915D
:102D0000E800877F8093E8008091EB0080628093E9
:102D1000EB00AA960FB6F894DEBF0FBECDBFDF91D1
:102D2000CF911F9108958058823028F72091AD02ED
:102D30003091AE022C3DE3E03E07A1F583E08A83AB
:102D40008AE289834FB7F894DE01139620E03EE0D3
:102D500051E2E32FF0E050935700E49120FF03C0CD
:102D6000E295EF703F5FEF708E2F90E0EA30C0F099
:102D7000C7968D939D932F5F243159F74FBF809154
:102D8000E800877F8093E8006AE270E0CE01019658
:102D90000E94FC098091E8008B778093E800ABCF1C
:102DA000C096E7CF8091AF029091B002432F552794
:102DB0004330510509F44AC078F54130510509F412
:102DC0007AC08BE790E0E3EFFEE04230510509F076
:102DD00092CF2091E800277F2093E8002091B10254
:102DE0003091B2028217930708F49C0140E021154C
:102DF000310509F065C0411163C08091E80082FD92
:102E0000C9CF8091A902882329F2853019F28091D7
:102E1000E80083FFF2CFBECF4132510509F43CC038
:102E20004232510509F067CF8430910508F063CF35
:102E3000FC01EE0FFF1FE459FE4F0190F081E02DE1
:102E400088599E4FDC018C9190E01AC033272130C5
:102E50003105D1F02115310561F02230310509F03D
:102E60004ACFE0E8FFE0E4918E2F90E0E0E8FFE059
:102E700007C0EEEAFFE0E4918E2F90E0EEEAFFE07B
:102E8000009709F438CFA5CFE0E9FFE0E4918E2F59
:102E900090E0E0E9FFE0F4CF8430910508F02BCF1B
:102EA000880F991FFC01EC58FE4F0190F081E02D36
:102EB00089E090E08ECF82E190E0EEE6FFE089CFFE
:102EC0008091A902882309F465CF853009F462CF87
:102ED0008091E80083FD5ECF8091E80082FD8DCF78
:102EE0008091E80080FF83CF9091F3008091F20001
:102EF0002115310519F08830910550F041E008970F
:102F000009F040E08091E8008E778093E8006FCF71
:102F100044914093F1003196215031090196E8CF58
:102F2000803809F0E8CE8091E800877F8093E80040
:102F30008091AA028093F10087CE8111DCCE10919E
:102F4000AD02123008F0D7CE8091E800877F8093E1
:102F5000E8001093AA020E944A09112311F084E0AC
:102F600005C08091E30087FDFACF81E08093A9023C
:102F700042E061EC81E00E94690942E261EC84E098
:102F80000E94690942E261EC82E00E94690942E222
:102F900060EC83E00E94690942E261EC85E00E94F6
:102FA0006909A9CE8091AD02813009F0A4CE81E0FB
:102FB000933009F080E08093A8021092E90080919C
:102FC000E800877F8093E8000E944A0994CECF935F
:102FD000C82F1F928F9388E599E09F938F930E944B
:102FE000C70861E070E080E090E004C0660F771FE2
:102FF000881F991FCA95D2F70E9406120F900F9052
:103000000F900F90CF910C940615CF93DF93EBEFB9
:10301000E80FEF3308F04EC2F0E0E259F04D0C94A7
:10302000F12E8AE097E00E942E0887E493E00E9448
:103030002E0883E090E00E94122F1F928F9384E469
:1030400093E09F938F930E94C70882E493E00E94CD
:103050002E0882E090E00E94122FC82F8FE293E0AA
:103060000E942E081F92CF938AE293E09F938F9342
:103070000E94C70888E293E00E942E088EE193E048
:103080000E942E088C2F81701F928F938BE193E00A
:103090009F938F930E94C70889E193E00E942E08B6
:1030A0008FE093E00E942E08C1FB882780F91F92D1
:1030B0008F938CE093E09F938F930E94C7088AE0E0
:1030C00093E00E942E088EEF92E00E942E08C2FB31
:1030D000882780F91F928F938BEF92E09F938F93B5
:1030E0000E94C70889EF92E00E942E0880EF92E0CC
:1030F0000E942E08C3FBCC27C0F91F92CF938DEE00
:1031000092E09F938F930E94C7088BEE92E00E94FB
:103110002E080E94000DEC0187ED92E00E942E081F
:10312000DF93CF9382ED92E09F938F930E94C70825
:1031300080ED92E00E942E0887EB92E00E942E081C
:103140008C2F81701F928F9384EB92E09F938F93CB
:103150000E94C7088DB79EB780960FB6F8949EBFA1
:103160000FBE8DBF82EB92E00E942E088BE992E0A9
:103170000E942E08C1FB882780F91F928F9388E94F
:1031800092E09F938F930E94C70886E992E00E9485
:103190002E0884E892E00E942E088D2F81701F92E5
:1031A0008F9381E892E09F938F930E94C7088FE7E7
:1031B00092E00E942E088DE692E00E942E08D6959D
:1031C000D1701F92DF938AE692E09F938F930E94C3
:1031D000C70888E692E00E942E0886E592E00E94E9
:1031E0002E08C2FB882780F91F928F9383E592E017
:1031F0009F938F930E94C70881E592E00E942E085A
:103200008FE392E00E942E08C3FB882780F91F926B
:103210008F938CE392E09F938F930E94C7088AE379
:1032200092E00E942E0880E392E00E942E08C4FBE8
:10323000882780F91F928F938DE292E09F938F935E
:103240000E94C7088BE292E00E942E0889E192E07A
:103250000E942E08C5FB882780F91F928F9386E174
:1032600092E09F938F930E94C70884E192E00E94AE
:103270002E0888EF91E00E942E08C6FB882780F96F
:103280001F928F9385EF91E09F938F930E94C708C1
:103290008DB79EB780960FB6F8949EBF0FBE8DBFB8
:1032A00083EF91E00E942E088BEE91E00E942E08A1
:1032B000C7FBCC27C0F91F92CF9388EE91E09F9374
:1032C0008F930E94C70886EE91E00E942E080F900F
:1032D0000F900F900F9081E01CC089EF96E00E9444
:1032E0002E080E949C14F7CF87E593E00E942E08D9
:1032F000F2CF80915902807F809359028AE49DE049
:103300000E942E0885EF96E00E942E0881E08093AF
:10331000A901DF91CF91089589ED96E00E942E08D2
:103320000E9406159FEF24E38CE0915020408040DE
:10333000E1F700C000000E945D0A90915902892FB8
:103340008E7F90FF81608093590280FF03C08DECD7
:1033500096E0CCCF80EC96E00E942E088091590236
:10336000817F80935902B7CF90915902892F8D7F29
:1033700091FF82608093590281FF08C083EB96E041
:103380000E942E08809159028160EBCF85EA96E079
:10339000ADCF90915902892F8B7F92FF84608093EB
:1033A000590282FF03C086E996E0EACF86E896E0FC
:1033B0009DCF90915902892F877F93FF88608093DA
:1033C000590283FF03C08AE796E0DACF8DE696E0E4
:1033D0008DCF86EC95E00E942E088AE895E00E9449
:1033E0002E0883E795E00E942E0884E395E00E9472
:1033F0002E0889E095E07ACF88E496E00E942E08B6
:103400000E94250B1F928F938EE296E09F938F93DD
:103410000E94C708809111011F928F9387E196E067
:103420009F938F930E94C708809185021F928F936C
:1034300084E096E09F938F930E94C7088091470293
:1034400087FB882780F91F928F938CEE95E09F93DE
:103450008F930E94C7080E947D0A9F938F937F934A
:103460006F9385ED95E09F938F930E94C7088DB76A
:103470009EB746960FB6F8949EBF0FBE8DBF2BCF5A
:103480000E94061590914702892F97FB87F9805873
:103490008093470287FF03C083E696E027CF88E545
:1034A00096E024CF80E00E94E71715CF8953FBCF29
:1034B0008D51F9CF86E596E00E942E0880E029CF55
:1034C000CF93C82F882309F4B7C08CEF8C0F813AB3
:1034D00008F071C18091A9018130C9F1882369F197
:1034E000823009F461C01092A901809111018823F2
:1034F00009F44EC18091470287FF4AC1EC2FE6953F
:10350000E695E695F0E0E258FE4F828190E04C2F80
:10351000477021E030E002C0220F331F4A95E2F7E6
:1035200082239323892B09F43EC16C2F8EE791E00F
:103530000E94A00F0E94211036C180912202823287
:10354000A1F68C2F0E940518811176C0CECF8091F4
:1035500022028232B1F3C431C9F048F4CB3059F0C1
:10356000C031C1F081E79DE00E942E0811C0C93230
:1035700069F0C833B9F78AE49DE00E942E0887E716
:103580009DE00E942E0881E08170DECF1092A9019B
:1035900080E0FACF0E94491283E79DE00E942E0846
:1035A00082E08093A901EFCFC432C8F4CE3108F095
:1035B000BEC0CB30E1F040F4C73009F4CFC080E2A8
:1035C0009EE0CF910C942E08C331C1F1C431B9F7FC
:1035D0008091A801882349F11092A8010AC0CB3438
:1035E00009F4BAC0C0F4C93299F3C83341F70E9454
:1035F00049128091A801882309F4C7C01F928F93B4
:103600008AE19EE09F938F930E94C7080F900F90CE
:103610000F900F9011C0C13509F498C0C23509F45C
:103620008FC0CE3461F66AE092C08FE29EE00E94C5
:103630002E0881E08093A901CF91089589E09EE052
:103640000E942E0887EF9DE00E942E0880910501C0
:103650001F928F9384EF9DE09F938F930E94C708E2
:1036600082EF9DE00E942E0880EE9DE00E942E08D1
:10367000809106011F928F938DED9DE09F938F9314
:103680000E94C7088BED9DE00E942E088CEC9DE007
:103690000E942E08809103011F928F9389EC9DE078
:1036A0009F938F930E94C70887EC9DE00E942E088D
:1036B00086EB9DE00E942E08809102011F928F935D
:1036C00083EB9DE09F938F930E94C70881EB9DE061
:1036D0000E942E088CE99DE00E942E088091010135
:1036E0001F928F9389E99DE09F938F930E94C70853
:1036F00087E99DE00E942E0880E89DE00E942E0848
:10370000809100011F928F938DE79DE09F938F938F
:103710000E94C7088BE79DE00E942E088DB79EB7D8
:1037200048960FB6F8949EBF0FBE8DBF62CFCE51A4
:10373000EC2FF0E0E65EFE4F80818093A80159CF28
:1037400061E08091A8010E94DF1253CF61E0809177
:10375000A8010E9460124DCF6AE0F3CF8EE1809302
:10376000050182E3809306018AE08093030184E1EE
:103770008093020188E08093010188E28093000138
:1037800082E29EE00E942E0834CF87E19EE019CFAE
:10379000E0E8F1E086E891E02191C21709F4C5CE96
:1037A0008E179F07C9F76C2F8EE791E00E94DB0F01
:1037B000CF910C94211080E28C0F883068F4C77090
:1037C00021E030E001C0220FCA95EAF78091220281
:1037D000822B80932202ECCFEBE5EC0FE33040F438
:1037E000F0E0EC5DFE4F808190E0CF910C940F0BE8
:1037F000E8E5EC0FE73150F4F0E0EE0FFF1FE95D74
:10380000FE4F80819181CF910C94F90ACD3E08F44E
:1038100013CF8C2F0E942D0CCF910C94BE101F93B0
:10382000CF93DF93182FD0E0C0E0893311F4C0E5C7
:10383000D0E0812F0E94601A209731F4812FDF9110
:10384000CF911F910C9410128FE99FE00197F1F72F
:1038500000C000002197F0CF0F931F93CF93DF9309
:10386000C62FD42F022FFC0182818823A1F0609300
:10387000B5020E94890A9093B4028093B302C77084
:1038800081E001C0880FCA95EAF7DF91CF911F91BF
:103890000F910C94B4108091B502681335C08091DB
:1038A000B3029091B4020E946E0A883C910560F5C3
:1038B00010E21D0FCD17B9F080E28C0F883040F474
:1038C000C77081E001C0880FCA95EAF70E94A9106D
:1038D000183048F481E09D2F977001C0880F9A95A9
:1038E000EAF70E94B410802F0E940F1C183098F441
:1038F000D77081E001C0880FDA95EAF7DF91CF91A8
:103900001F910F910C94A910C77081E001C0880F1E
:10391000CA95EAF7F3CFDF91CF911F910F910895E8
:103920003F924F925F926F927F928F929F92AF924F
:10393000BF92CF92DF92EF92FF920F931F93CF939C
:10394000DF9300D000D00F92CDB7DEB78C01FC0121
:1039500083819481892B31F08081918189238F3FEC
:1039600009F0BBC50F900F900F900F900F90DF9153
:10397000CF911F910F91FF90EF90DF90CF90BF906C
:10398000AF909F908F907F906F905F904F903F90FF
:1039900008950E94CB0EF82E682F89819A810E948B
:1039A000C30A69817A818F2D0E94340D7C01F80150
:1039B0008281882309F484C5970122513F45203133
:1039C000310508F050C58FEF93E00E94122FFEEEF4
:1039D000EF0E56EF852E52E0952E882381F18091CF
:1039E0001F02877009F4BECFF8018281882309F491
:1039F000B9CF82E00F900F900F900F900F90DF9152
:103A0000CF911F910F91FF90EF90DF90CF90BF90DB
:103A1000AF909F908F907F906F905F904F903F906E
:103A20000C94CD11811424E09206C9F2C4010E94C5
:103A3000122F811101C0EA943FEF831A930AE1101B
:103A4000F1CF1C821B82442443944AE0342E74013B
:103A50008FEFE81AF80AC4010E94122F89831A8294
:103A6000882309F4BCCF9FEF980F933000F58A8329
:103A7000498292E0890E911CC7010E94122F8B830C
:103A8000882309F4ACCFFE0131967F01F701208134
:103A90002223E9F2213009F049C0918182819130DD
:103AA00041F4F2E0EF0EF11C0E940F1C09C0470127
:103AB000EACF923049F422E0E20EF11C0E94601A33
:103AC0003FEFE31AF30AE2CF933031F432E0E30E32
:103AD000F11C0E941012F4CF943021F08FEFE81AFD
:103AE000F80AEECF92E0E90EF11C30E020E0B701D9
:103AF0006F5F7F4FF70141818053990B8A309105A9
:103B000050F021503109E0F28FE99FE00197F1F781
:103B100000C00000F6CF329EF001339EF00D11245C
:103B20009C012E0F3F1F842F7B01E1CFE22FF0E09D
:103B3000E955F34F5490822F86958695869590E0AF
:103B4000FC01E956F34F64902770712C022E02C0DD
:103B5000759467940A94E2F7E1E06E227724FC0101
:103B6000E957F34FA490B12C022E02C0B594A7944C
:103B70000A94E2F7F1E0AF22BB24FC01E958F34FCD
:103B8000C490D12C02C0D594C7942A95E2F721E0C5
:103B9000C222DD246114710419F081EE0E94601AC2
:103BA000A114B10419F086EE0E94601A852D0E94BE
:103BB0000F1CAB2819F086EE0E941012672819F02E
:103BC00081EE0E941012CD2809F47ACF8CE26CCFDE
:103BD00081E00E94E5110E948E1101CF81E00E94D8
:103BE000AA11F9CF82E0F5CF96EFE9169CE5F90628
:103BF00009F46AC008F464C027E245EE66EEF7EF08
:103C0000EF16FCE5FF0609F457C4882309F476C4CF
:103C10001092B50222E0E2162CE5F20608F44CC13F
:103C200036E1E3163CE5F30638F097012B5F3C459F
:103C30002930310508F040C10E94000D90934802E0
:103C40008093470280E1E8168CE5F80609F403C189
:103C500008F083C0E8E0EE16ECE5FE0609F4EDC0DE
:103C600008F04FC024E0E2162CE5F20609F4DDC0AE
:103C700090F582E0E8168CE5F80609F4D0C0809152
:103C80004702826093E0E9169CE5F90609F4CAC090
:103C900060914702F090480284E090E00E94202F5B
:103CA0006F2D81E290E00E94202F0E94061597CE92
:103CB00027E245EE65EE00C426E241EE60EEFCC36D
:103CC00027E245EE64EEF8C326E241EE62EEF4C36D
:103CD00028E241E0EFCF809147028061E6E0EE16F6
:103CE000ECE5FE0609F49EC0809147028860F7E08B
:103CF000EF16FCE5FF0608F495C08091470280624C
:103D000091C0809147028D7F2CE0E2162CE5F206EF
:103D100009F488C060F48AE0E8168CE5F80609F436
:103D200096C008F48EC0809147028E7F7BC0809140
:103D30004702877FEEE0EE16ECE5FE0609F472C05E
:103D4000809147028B7FFFE0EF16FCE5FF0608F449
:103D500069C0809147028F7E65C02CEFE2162CE58A
:103D6000F20609F466C068F583E1E8168CE5F8060A
:103D700009F479C090F4E1E1EE16ECE5FE0609F4F1
:103D80006EC0F2E1EF16FCE5FF0609F081CF0E945C
:103D90000615809147028F7745C025E1E2162CE594
:103DA000F20609F468C008F47CC08BEFE8168CE5D5
:103DB000F80609F06DCF8091480281608093480237
:103DC00067CFE1149DE5F90609F451C0A0F4809194
:103DD00048028D7FFEEFEF16FCE5FF0679F3809138
:103DE00048028E7F2FEFE2162CE5F20638F3809121
:103DF00048028360E3CF32E0E3163DE5F30609F4C1
:103E000059C008F444C060E093E0E9169DE5F90666
:103E100009F03ECF8EE090E00E94202F39CF8091B4
:103E2000470281608093470233CF809147028460CC
:103E3000F9CF809148028260C1CF809147028064AF
:103E4000F1CF0E940615809147028068EBCF8091E8
:103E500047028C60E7CF809147028F7DE3CF80914E
:103E600047028F7BDFCF80914702837FDBCF80913A
:103E700048028C7FA3CF8091470282FB992790F95B
:103E800021E0922790FB82F990FB83F9CBCF8091C0
:103E90004802982F909591708E7F892B90FB81F925
:103EA0008DCF0E94061590914702892F97FB87F9C5
:103EB0008058B8CF61E0AECFE6E1EE16ECE5FE0645
:103EC00009F02CC3809122028A7A91E009F490E0F3
:103ED0009093A70169E2811165E38EE791E00E946A
:103EE000DB0F0E9421107BCD90915902892F8E7F8C
:103EF00090FF81608093590280FF05C089E39DE0B7
:103F00000E942E086CCD87E29DE0FACF0E949C149F
:103F100066CDF801E080F1808823D9F1C7010E94C5
:103F2000CB0ED82E682FC7010E94C30AB7018D2D72
:103F30000E94410D7C01882EF801D280A580A294B8
:103F40003FE0A32280911F028770A1F0CD2CDD20DD
:103F500091F08F2D807F803421F080E28E0D8830AB
:103F600048F082E00E94CD1180911F028770CC241E
:103F7000C3948111C12C3F2C32942FE03222FBE0FC
:103F8000F31508F442C0E32DF0E0E355F04D0C9436
:103F9000F12EC7010E949B0AD82EC8CF2F2D2F705B
:103FA000A22E8F2D807F19F0A29490EFA922DD2000
:103FB000C9F0AA2069F080E28E0D883010F08110DF
:103FC0000BC080912202A82AA09222020E942110F6
:103FD0008E2D0E94601A19C080912102A82AA092F9
:103FE0002102F4CF8E2D0E941012AA2071F0A0940D
:103FF00080E28E0D883010F081103DC08091220249
:10400000A822A09222020E942110232D2850330BB7
:104010002430310510F40E94250BCC2009F4A2CCE9
:1040200080911F0280FD9ECCF801128285958595B6
:1040300085950E94E511C8010E94901C80911F0285
:104040008595859585950F900F900F900F900F9007
:10405000DF91CF911F910F91FF90EF90DF90CF9064
:10406000BF90AF909F908F907F906F905F904F9098
:104070003F900C94AA1180912102A822A0922102C3
:10408000C2CF3F2D3F70932E8F2D807F803219F04D
:10409000929480EF9822882071F081E0881661F177
:1040A000DD20B9F1AA2071F1F801858180FF90CF60
:1040B0008F70858327C0DD2091F090912302892D98
:1040C000892BA11003C00E94B4109FCFE1E0AE1273
:1040D000FACF981709F499CF8093230296CFA110B5
:1040E00006C00E94950A892D0E94A9108ECFF1E08A
:1040F000AF1609F48ACFF5CFDD2031F025E02A157F
:1041000008F483CF892DDFCF34E03A1508F47DCF52
:10411000EACFAA2041F3F9E38F1209C02FEF37EE5F
:1041200083E0215030408040E1F700C000008E2D38
:104130000E9410126ACF8F2D86958695837061F04C
:10414000813009F062CFC7019370D11002C090E0B6
:1041500080E00E94F90A59CFC7019370D11002C0C4
:1041600090E080E00E940F0B50CF8E2DDD2029F0D3
:104170000E942D0C0E94BE1048CF0E94310BFACF36
:104180008F2D837009F066C0D1103FCF8E2D8295A0
:1041900086958770880F880F6E2D6F70462E512C74
:1041A000712C612C082E04C0440C551C661C771C15
:1041B0000A94D2F740E050E0BA01E4FE0FC04FE0AD
:1041C00050E060E070E004C0440F551F661F771F89
:1041D0008A95D2F740955095609570958F2D86956C
:1041E00086958370823019F1D8F4809024029090E3
:1041F0002502A0902602B0902702813069F0442960
:10420000552966297729CB01BA01682179218A21AC
:104210009B210E940612F9CE482859286A287B283B
:10422000CB01BA016429752986299729F2CF44293F
:1042300055296629772940902402509025026090E4
:10424000260270902702CB01BA01642575258625C8
:104250009725DFCF8695DD2011F08F2D8170882383
:1042600009F4D3CE8E2D829586958770880F880F9E
:104270006E2D6F70462E512C712C612C082E04C0AF
:10428000440C551C661C771C0A94D2F740E050E0A1
:10429000BA01E4FE0FC04FE050E060E070E004C0FF
:1042A000440F551F661F771F8A95D2F7409550958A
:1042B000609570958F2D869586958370823019F163
:1042C000D8F48090B6029090B702A090B802B09057
:1042D000B902813069F04429552966297729CB0133
:1042E000BA01682179218A219B210E9484118DCEF7
:1042F000482859286A287B28CB01BA0164297529E6
:1043000086299729F2CF4429552966297729409093
:10431000B6025090B7026090B8027090B902CB011B
:10432000BA016425752586259725DFCF9F2D9F70BF
:10433000F92EDD2029F0892F0E94E5118E2DC3CEA4
:104340008E2D0E94A9108F2D0E94AA115ECE8E2D57
:10435000E2EF8E1609F453C0E81578F0F0EF8F16EF
:1043600029F121EF821609F442C0DD2009F46BC067
:10437000A1102ECE8F2D8F713FC033EF831609F41D
:1043800043C094EF8912F1CFDD2009F451C02F2DE5
:104390002F71F22E822F0E94E51138E0F39EC001AA
:1043A0001124836080931F028F2D26C0DD20D1F061
:1043B000E4E0EA1508F429CE2F2D2F7161E070E0BA
:1043C00080E090E004C0660F771F881F991F2A9530
:1043D000D2F74090B6025090B7026090B802709049
:1043E000B9029FCFF5E0FA1508F40FCEE5CF8F2D77
:1043F0008F71DD2009F4A8CF0E94E51106CE8F2D24
:104400008F71DD20C9F3A0CF60E070E0CB01DD202B
:1044100009F46BCF2F2D2F7161E070E080E090E008
:1044200004C0660F771F881F991F2A95D2F75DCFAA
:1044300081E00E94CD1181E08A1508F0E6CD82E08E
:104440000E94CD11E2CDAA2059F0893309F06FCE38
:104450009FEFE7EEF3E09150E040F040E1F765CEEA
:104460008F2D8F7171CFF0E1EF16FFE5FF0609F494
:10447000AFCB21E1E2162FE5F20609F4B3CB94EFBE
:10448000E9169CE5F90609F417CC08F0ADCBF9ED77
:10449000EF16FCE5FF0609F40BCC2AEDE2162CE53D
:1044A000F20609F415CC38EDE3163CE5F30609F005
:1044B000ACCB26E241EE61EEC8010E942C1C8FCAF3
:1044C00030E1E3163FE5F30609F488CB91E1E91604
:1044D0009FE5F906A1F682E082CB85E0DE01119628
:1044E00001900D928A95E1F7F801228189819A81E4
:1044F00021114FCA0E949B0AF82E53CAF6E1EF160B
:10450000FCE5FF0609F005CD8091A70169E2811164
:1045100065E38EE791E00E94A00FE3CC21E0E21674
:104520002CE5F20609F4E0CC3FEDE3163CE5F3069A
:1045300009F4ECCCE1149CE5F90609F0EACC0E9400
:104540000615FFEF24E33CE0F15020403040E1F756
:1045500000C000000E945D0A1F93CF93DF938091FB
:10456000B001807FA9F48091AD01882389F080910A
:10457000E201D091B1016091AB017091AC01A091C9
:10458000AE01B091AF01C62FC72316E0D81304C007
:10459000DF91CF911F91089590E0109711F0CF3FD8
:1045A00019F401968770F2CF189F9001199F300D72
:1045B0001124F901EE54FE4F41814713F2CF40819F
:1045C0004613EFCF42814111ECCF438154814A1B06
:1045D0005B0B483C510528F78091B0018F708061DA
:1045E0008093B001F901E954FE4F80818F708061A2
:1045F00080838BEA91E00E94901CDF91CF911F9104
:104600000C94EF0AAF92BF92CF92DF92EF92FF929B
:104610000F931F93CF93DF93CDB7DEB761970FB69C
:10462000F894DEBF0FBECDBF8C0185E0F801DE013E
:104630001D9601900D928A95E1F7F8018081918194
:10464000E2802BEAA22E21E0B22E6091AE017091A1
:10465000AF016115710509F43EC13091AB01409184
:10466000AC01232F24232F3F09F435C1C380D4800C
:10467000F090AD01F601E61BF70BFF2009F4FBC03B
:104680002091B001522F507FE83CF10508F0BBC0EB
:10469000511178C0FE2C491321C038131FC0E110FE
:1046A0001DC02F7020612093B001C5010E94901C95
:1046B0008091B001F80185838F2D61960FB6F89433
:1046C000DEBF0FBECDBFDF91CF911F910F91FF9045
:1046D000EF90DF90CF90BF90AF900895CD2829F054
:1046E000282F29232F3F09F014C120E0F22FF17069
:1046F000DF2E20FF3DC02091E2014091B10156E044
:10470000241315C08D879E878D859E850E940D0F71
:10471000292F22952F702230F8F0243020F59F7039
:10472000F9F0F8019581907FD9F4D12C1FC030E0C9
:10473000529FF001539FF00D1124EE54FE4F618102
:10474000961306C06081861303C06281E61210C012
:104750002F5F3F4F2770D4CF9F7011F0882329F32C
:10476000805E883010F3C8010E94901CFD2CA4CFFD
:10477000EE2009F4A1CF8091B00181608093B00157
:10478000F12C9ACF491312C0381310C0E1100EC09B
:10479000F8012583C8010E94901C86E0F801ABEA6D
:1047A000B1E001900D928A95E1F786CF8D879E87C3
:1047B0008D859E850E94170F882309F1EE20F9F060
:1047C0008091B001803270F02091AB013091AC014A
:1047D00038872F831986DB86CA868C87CE01079699
:1047E0000E94901C86E0F801ABEAB1E001900D92C6
:1047F0008A95E1F70E94AC22FF24F3945DCFC801B3
:104800000E94901CF9CF51110AC08BEA91E00E94DE
:10481000901C86E0F50111928A95E9F7B1CF491312
:104820000FC038130DC0E1100BC0F8012583C8017B
:104830000E94901C86E0F50111928A95E9F73CCF21
:104840008D879E878D859E850E94170F8823B9F2DC
:10485000EE20A9F28091B001803220F22091AB01CC
:104860003091AC013A8329831B82DD82CC828E8316
:10487000CE010196B5CFE83CF105E0F6FE2CEE2026
:1048800009F4BDCF491316C0381314C08091B0018C
:1048900080FD83CF982F907F09F47FCFF801858327
:1048A000903F09F477CF982F907F905F8F70892B7E
:1048B000858370CF8D879E878D859E850E94170F7B
:1048C000811190CF8091B00181608093B001C801C7
:1048D0000E94901CF1CEEE2009F491CF8D879E8727
:1048E0008D859E850E94170FF82E882309F487CFA7
:1048F00086E0F801ABEAB1E001900D928A95E1F70C
:104900008091AB019091AC010E940D0F0E94AC22EE
:10491000D3CE21E02E25EACE1F93CF93DF93CDB7E0
:10492000DEB767970FB6F894DEBF0FBECDBF342F4A
:104930004B8B252F5C8B6D8B7E8B8F8B8E899F890C
:104940006111109221021A8A198A3D872E876F877A
:10495000998B888B86E0FE013D96DE0117960190CB
:104960000D928A95E1F7CE0107960E9402238823D3
:1049700089F016E08091E2019091B101891349C05C
:1049800067960FB6F894DEBF0FBECDBFDF91CF9113
:104990001F91089586E0FE013796DE011196019081
:1049A0000D928A95E1F78A859B85892B11F38F817A
:1049B000988589238F3FE9F22091B10130E0C90148
:1049C0000196877099274091E2014817190671F402
:1049D0000E9406151092B1011092E20186E0EBEA06
:1049E000F1E0DF011D928A95E9F7C3CF96E0929F2F
:1049F000D001939FB00D1124AE54BE4FFE013196ED
:104A000001900D929A95E1F78093B1010E94EF0A0F
:104A1000B0CF819FC00111248E549E4F0E9402236B
:104A2000882309F4ADCF8091E20190E00196877070
:104A300099278093E2019ECF6F927F928F929F92EF
:104A4000AF92BF92CF92DF92EF92FF920F931F939C
:104A5000CF93DF93CDB7DEB72A970FB6F894DEBFBA
:104A60000FBECDBFB5E5CB2EB1E0DB2E11E3E12EBD
:104A700012E0F12E570110E088248394912CD60186
:104A80008D916D01F894E82FE295EF70F0E021A18F
:104A90008F70A40102C0440F551F8A95E2F7CA0126
:104AA000922F982B91A392A18095892382A3789429
:104AB00000C0EFE5F1E030E020E0712C612C419185
:104AC000A42FA295AF70B0E090968C9190E04F70BB
:104AD00002C0959587954A95E2F780FD53C0C401C1
:104AE000022E02C0880F991F0A94E2F7682A792AD9
:104AF0002F5F3F4F2930310511F7F6013197808143
:104B00000E948E0C50EA5A95F1F7D5018D919C9137
:104B1000119768167906C9F16D927C9281E0182B85
:104B2000B2E0AB0EB11CEAE5CE16E1E0DE0609F01C
:104B3000A6CF00914602112351F181E08093A0019C
:104B40000E94890A90939F0180939E0180919E010B
:104B500090919F010E946E0A0697E8F0E02FF0E026
:104B6000EE0FFF1FE259FD4FD7018D919D917D0101
:104B700081939193BBE3EB16B2E0FB06A9F7109289
:104B8000A00109C090E080E0B1CF80E0C8CF809163
:104B9000A0018111DBCF0E948014082F6091460292
:104BA000882309F480C0FE0131967F018AE0DF018D
:104BB0001D928A95E9F7862F90E0880F991FB7011B
:104BC00082599D4F0E94342D811147C08091A101CF
:104BD0008F5F8093A101863008F463C08091450205
:104BE00090E0FC01EE0FFF1FE259FD4F1182108291
:104BF000FC01EE0FFF1FE059FD4F11821082FC01F6
:104C0000EE0FFF1FEE58FD4F11821082FC01EE0FD8
:104C1000FF1FEC58FD4F11821082880F991FFC0175
:104C2000EA58FD4F11821082111101C0102F812FFF
:104C30002A960FB6F894DEBF0FBECDBFDF91CF919D
:104C40001F910F91FF90EF90DF90CF90BF90AF90AA
:104C50009F908F907F906F9008951092A101E091A6
:104C60004502F0E0EE0FFF1F9F0122593D4F690101
:104C7000D701AE01455F5F4F00E0F6016191719190
:104C80006F012D913D916217730739F0BF0162509A
:104C90007109FB0131832083082FA417B50769F739
:104CA000C3CF00E0C1CF70E0660F771F62597D4F20
:104CB0008091450290E0880F991F82599D4F0E9474
:104CC0005F2DB2CF1F920F920FB60F9211242F9328
:104CD0003F934F935F936F937F938F939F93AF9384
:104CE000BF93CF93DF93EF93FF93D091E900DF70F1
:104CF0008091EC00C82FC17080FDC0E81092E900DF
:104D00008091F000877F8093F00078940E941B15BB
:104D10001092E9008091F00088608093F000CD2B24
:104D2000CF70C093E900FF91EF91DF91CF91BF91D8
:104D3000AF919F918F917F916F915F914F913F9133
:104D40002F910F900FBE0F901F9018951F920F92EA
:104D50000FB60F9211242F933F934F935F936F934E
:104D60007F938F939F93AF93BF93EF93FF93809124
:104D7000E10082FF15C08091E20082FF11C08091A6
:104D8000E1008B7F8093E100209183022F5F822FCF
:104D900062E30E94D12E992309F4BEC020938302BE
:104DA0008091DA0080FF28C08091D80080FF24C065
:104DB0008091DA008E7F8093DA008091D90080FFA5
:104DC000E1C080E189BD82E189BD09B400FEFDCF6B
:104DD00081E08093A9028FED9EE00E942E088091D1
:104DE0008402811109C00E94D0080E949B09809111
:104DF000E20084608093E2008091E10080FF1BC0AC
:104E00008091E20080FF17C08091E2008E7F809346
:104E1000E2008091E20080618093E2008091D800FE
:104E200080628093D80019BC85E08093A90287EE48
:104E30009EE00E942E088091E10084FF2DC08091A9
:104E4000E20084FF29C080E189BD82E189BD89B586
:104E5000982F917080FFFBCF8091D8008F7D809339
:104E6000D8008091E1008F7E8093E1008091E20084
:104E70008F7E8093E2008091E20081608093E20067
:104E80008091AA02882309F487C084E08093A90254
:104E90008BEE9EE00E942E088091E10083FF2BC0E4
:104EA0008091E20083FF27C08091E100877F80939B
:104EB000E10082E08093A9021092AA028091E100B1
:104EC0008E7F8093E1008091E2008E7F8093E200EC
:104ED0008091E20080618093E20042E060E080E047
:104EE0000E9469098091F00088608093F0008FEE45
:104EF0009EE00E942E08FF91EF91BF91AF919F918C
:104F00008F917F916F915F914F913F912F910F9072
:104F10000FBE0F901F90189510928302809182020D
:104F2000882309F43DCF8091A9028430C1F4909187
:104F3000E9009F702091EC00822F817020FD80E8B5
:104F4000892B95E09093E9009091EB0090FF04C0CD
:104F50009091EE0097FD08C08F708093E900109249
:104F600082021ECF1092F1009091E80095FDFACFD9
:104F70009091E80090FFF0CF9091E8009E77909399
:104F8000E800EACF19BC1092A90283EE9EE00E94CD
:104F90002E081092840230CF8091E30087FD93E0C9
:104FA0009093A90275CFCDB7DEB7AD970FB6F89441
:104FB000DEBF0FBECDBF84B7877F84BF0FB6F89426
:104FC000A8958091600088618093600010926000D5
:104FD0000FBE80E890E00FB6F89480936100909344
:104FE00061000FBE85B7806885BF85B7806885BFC3
:104FF00083E893E190937D0180937C010E94D00827
:105000000E949B098091E20084608093E200789482
:105010008091A9028823A1F01091E9001F7090915E
:10502000EC00892F817090FD80E8182B1092E90028
:105030008091E80083FD0E941B151F701093E9000A
:1050400082E084BD93E095BD9AEF97BD80936E009A
:1050500010922D0210922E0210922F021092300206
:105060000E94870C809304010E94801481110E9489
:10507000282D809104018091040195E0811190E038
:105080009093460285E0891B8093450284EF0E943D
:105090008E0C85EF0E948E0C86EF0E948E0C87EF9F
:1050A0000E948E0C81E30E948E0C0FE511E0F80146
:1050B00081918F010E948E0CF1E008361F07B9F72D
:1050C000E1E3F2E085E492E0AEE6B2E01192119203
:1050D0001D921D928E179F07C9F70E941C258FE312
:1050E0009CE90197F1F700C000000E941C250E9476
:1050F000870C25E0811120E081E090E002C0880F5C
:10510000991F2A95E2F720916E0230916F02822357
:105110009323892BB9F06FEF82E290E00E94202F59
:105120006FEF83E290E00E94202F6FEF84E290E027
:105130000E94202F6FEF7FEF90E080E00E943E2FD3
:105140000E945D0A90E080E00E941A2F8B3E9E4FE5
:1051500011F00E949C140E948014811102C00E94D0
:105160002E2D82E290E00E94122F813209F0C6C3F8
:1051700083E290E00E94122F833009F0BFC384E2E3
:1051800090E00E94122F843109F0B8C390E080E0D3
:105190000E941A2F8B3E9E4F11F00E949C1482E0B9
:1051A00090E00E94122F809359020E94000D90936C
:1051B00048028093470283E090E00E94122F682FFC
:1051C00070E090E080E00E94061287E091E090930A
:1051D0004A02809349028EEC9EE00E942E08809144
:1051E000A902853071F48AEC9EE00E942E0800E14D
:1051F00012E18091A9028530E1F10E9406150E941A
:10520000250B0E941C2581110E947D0AEAE5F2E02F
:10521000FCA7EBA7EEE64E2EE2E05E2E10E000E0EB
:10522000FBE86F2EFEE07F2E0DA7F201E190F190DA
:105230002F01EBA5FCA5A190B190FCA7EBA7AE14A4
:10524000BF0409F052C00F5F1F4F0A30110561F70C
:105250008FEF8EA38FA318A60E94890A8160782FF2
:105260009AA789A74EA15FA168A58AA50E948C2450
:1052700072C08091A902843021F110924B0288E122
:1052800090E0E0E40FB6F894A895809360000FBE1C
:10529000E093600083B7817F846083BF83B78160C0
:1052A00083BF7894889583B78E7F83BF0FB6F894B9
:1052B000A8958091600088618093600010926000E2
:1052C0000FBE8091A802882309F493CF0E941C2569
:1052D000EEE6F2E081919191892B09F0F9C282E822
:1052E00092E08E179F07B1F784CF8091590281FD1C
:1052F0001FC1C5018E259F25B12CCC24C394D12C70
:105300009C012C213D21232B09F44BC10E948014C8
:105310008823B1F0B9A2EDA5EAA3EC20FD2081E03D
:10532000EF2809F480E08BA30E94890A8160782F1E
:105330009DA38CA349A15AA16BA18DA10E948C248D
:10534000000F111FF801E65AFD4F80819181C82698
:10535000D926D182C08286E0E2E5F2E0DE01119634
:1053600001900D928A95E1F7E0905402F090550279
:105370001091560200915702109254021092550259
:1053800010925602109257028E2D8F2991F0809123
:105390005002909151020E946E0AAC0190914F020E
:1053A000992309F405C1809106018417150608F4B4
:1053B0000DC1812F802B09F448C080914D0290913E
:1053C0004E020E946E0A9C0190914C02992309F4AE
:1053D000B7C225363105C8F19F3F19F09F5F909302
:1053E0004C02112359F00E94AA0B9FEF11160CF4E6
:1053F00091E0899F802D112480935602002359F05B
:105400000E94AA0B9FEF10160CF491E0899F802D4B
:10541000112480935702309156023323B1F020912A
:105420005702222391F045EB3403C0011124992344
:1054300009F40BC19093560245EB2403900111240B
:10544000332309F406C1309357028091540290919E
:105450005502892B90915602892B90915702892BE6
:1054600011F00E94BE1086E0FE013196A2E5B2E086
:1054700001900D928A95E1F70E94250B90915802B8
:10548000891739F10E94250B182F809358028091BB
:10549000590282FF1EC080FF1CC087EB9EE00E9465
:1054A0002E088091590280FF14C01F921F9382EB37
:1054B0009EE09F938F930E94C708809159020F909E
:1054C0000F900F900F9080FF04C080EB9EE00E9431
:1054D0002E088091A902843009F081CE83E0809368
:1054E000E9008091E80082FF7ACE8091E80090E0A8
:1054F00085FF0CC00E94EF0830E2E32EF12C8E01F4
:105500000F5F1F4F882309F4B2C091E08091E8003B
:105510008B778093E800992309F461CEE981E1500B
:10552000E33108F00FC1F0E0E754F04D0C94F12E98
:1055300089E99EE00E942E086EE6862E62E0962E95
:10554000D12CC12CDF92CF9284E99EE09F938F9360
:105550000E94C70881E99EE00E942E08F401808124
:105560002180F2E08F0E911C0E94E80C382E822DD3
:105570000E94E80C3F928F937F926F920E94C7081F
:1055800089E89EE00E942E082FEFC21AD20A0FB6B9
:10559000F894DEBF0FBECDBF9AE0C916D10491F6D4
:1055A000A8CEB394CC0CDD1CF9E0BF12A9CE4BCE33
:1055B000209105018AE0289F9001112424173507C6
:1055C00008F0F7CE9F5F90934F0202C09F3FD1F744
:1055D000EE2059F00E94E30B9FEF1E140CF491E0B3
:1055E000899F802D112480935402FF2059F00E943E
:1055F000E30B9FEF1F140CF491E0899F802D112481
:105600008093550230915402332309F4D2CE209175
:105610005502222309F4CDCE45EB3403C0011124F9
:10562000992359F09093540245EB240390011124DF
:10563000332339F030935502BCCE81E0809354027D
:10564000F3CF81E080935502B4CE81E0809356027F
:10565000F3CE81E080935702F8CE8091F100F801FB
:1056600081938F01F1E0EF1AF10809F44ECF809198
:10567000E80085FDF2CF8091E8008B778093E80009
:105680000E94EF08882399F340CF1A8289E08B8328
:1056900011C08A81823009F44AC1833091F181308E
:1056A00009F050C00E947D0A0E94F72E6B837C8314
:1056B0008D839E838091A902843009F090CD109152
:1056C000E9001F709091EC00892F817090FD80E8B7
:1056D000182B82E08093E9008091E80080FF0DC0E4
:1056E00050E040E060E270E0CE0101960E942009A7
:1056F0008091E8008E778093E8001F701093E90096
:105700006ECDDE011196EEE6F2E080819181329657
:1057100012969C93129713968C931397129622E0ED
:10572000E238F20791F7C6CF8A81823059F46B8153
:105730007C818D819E810E94F72E85E290E00E94FF
:10574000202FB8CF8FEF8983B5CF4C816B818A81B1
:105750000E940E0D9827892798279E838D83AACFB4
:105760000D811E811027012710278A81EB8042E1DD
:10577000E49E7001112494EB899FE00CF11C11242C
:105780008C8190E0880F991FE80EF91E612FC701E8
:1057900086960E94202F602FC7018796D0CF0E9447
:1057A0003B0F88CF80E18A8385CF81E08A838AE0BE
:1057B0006ECF0A811B81102701271027FE01319629
:1057C0007F01CC80CF018C0D911D6C01C8018A50E6
:1057D0009D4FCE14DF0409F46DCF0A30E1E01E07BF
:1057E00050F40E94122FF70184830F5F1F4FFFEFC9
:1057F000EF1AFF0AEBCFF7011482F7CF0A811B8162
:10580000102701271027CE0101966C01EC80E00ED5
:10581000F12EF11CC8018A509D4FE016F10609F4E3
:1058200049CF0A30E1E01E0720F4F60164810E94AE
:10583000202FFFEFCF1ADF0A0F5F1F4FEBCF0E9421
:10584000900F38CF84E0AFCF0A811B81102701274A
:105850001027CE0101967C01CC80FC01EC0DF11DDE
:105860006F01C8018696EC14FD0409F423CF003DB6
:10587000F2E01F0750F40E94122FF70184830F5F9C
:105880001F4FFFEFEF1AFF0AECCFF7011482F7CF9B
:105890000A811B81102701271027CE0101966C0178
:1058A000EC80E00EF12EF11CC80186960E151F0546
:1058B00009F400CF003DE2E01E0720F4F601648108
:1058C0000E94202FFFEFCF1ADF0A0F5F1F4FECCF90
:1058D00009BD19BD09B400FEFDCF8091D8008F7DB0
:1058E0008093D8008091E00082608093E0008091F6
:1058F000E00081FDFCCF0E9406157BCC60E085E2D4
:1059000090E00E94202F0E943B0F0E94900F61E2C6
:1059100082E290E00E94202F63E083E290E00E9408
:10592000202F64E184E290E00E94202F2FCC85E2BA
:1059300090E00E94122F1B821C821D828E83BACEA1
:105940002D32314008F04ACD80CD0F931F930E9435
:105950008014882321F01F910F910C947D0A0E94DE
:105960007D0A00912D0210912E0220912F0230917C
:105970003002600F711F821F931F1F910F910895B6
:10598000CF92DF92EF92FF926B017C010E94801414
:1059900081110EC00E947D0AC61AD70AE80AF90AC8
:1059A000C0922D02D0922E02E0922F02F09230028D
:1059B000FF90EF90DF90CF90089578941F921FB6DC
:1059C0001F9211248F939F93AF93BF9380912802CE
:1059D00090912902A0912A02B0912B020196A11D5B
:1059E000B11D8093280290932902A0932A02B093BC
:1059F0002B02BF91AF919F918F911F901FBE1F905F
:105A000018951F921FB61F9211248F939F93AF93E7
:105A1000BF9380914B02811113C080912802909115
:105A20002902A0912A02B0912B024196A11DB11D1D
:105A30008093280290932902A0932A02B0932B020C
:105A4000BF91AF919F918F911F901FBE1F9018958E
:105A500061E070E082E191E00C94E32D61E070E0A0
:105A600082E191E00C94EA2DCF93DF93D62FC72FDC
:105A70000E94842E009709F5ED2FFC2FDC01AA0F60
:105A8000BB1FA154BD4F2D913C91219331930196A1
:105A90008530910599F70E94A52C6E5F7F4F8F4F3F
:105AA0009F4F6093BB027093BC028093BD029093A2
:105AB000BE0281E0DF91CF91089580E0FBCFCF93CC
:105AC000DF93D62FC72F6091BB027091BC028091EB
:105AD000BD029091BE020E94C02CED2FFC2F90E0E1
